:020000040000FA
:060000000212510207A0EC
:03002B000226A901
:03003300020E14A6
:0300430002109216
:03004B00020F0A97
:030053000206F3AF
:03005B00020F1978
:03006300020F2564
:03006B00020DFA89
:1000830002073C0101FF01010503010F10FEFF03FD
:100093000003000300030003000300030003000345
:1000A3000005000A00140028004F009E00000016FF
:1000B3001B161B161B161BD219CC19161BC62800A0
:1000C3000000006428000000000C0000000C000188
:1000D30004EC04FF141E280102007311000000E663
:1000E3001164000202000800000502071E02051E3B
:1000F300020A03B80B02803E0103320002F1FF0241
:1001030002063031323334353637383941424344CD
:10011300454600286E756C6C20706F696E7465724D
:1001230029003F3F3F000000807F0000803FF9022D
:100133001550B743BA510000204100E7DB2E000001
:10014300A04010000000080000000A000000121286
:100153007F604612129D603DE9687008F618F61834
:10016300F618F622748067F712018509090974806D
:1001730067F72212129D601D12127F70051919195B
:10018300801A1210EA701F121129C37003E6673335
:1001930019191940071818182208080874FFF618C7
:1001A300F618F618F62212112960171212DC7021C4
:1001B30092F01212E67019501720F014080808097B
:1001C3000909E7F61819E7F61819E7F61819E7F613
:1001D300221212E660E6E869701F0808E62480F63A
:1001E30008E436F618547FB47F0CE654806007F6B3
:1001F300E418F618F622181822E9C6CC08C6CD086A
:10020300C6CE08C6CFC0E0E8C0E0EAC0E0EBC0E07D
:1002130009E9F809E7FA09E7FBE6F918E6F8C3EC98
:1002230098ED99EE9AEBC2E7F5F0EFC2E795F0503F
:100233000E600CEBCFFBEACEFAE9CDF9E8CCF8EA95
:10024300A2E7D2E7FAEB33FB13F5F0EEA2E7D2E72E
:10025300FEEF33FFC5F013A2E730E601B313C5F099
:10026300C3C0E0C0F07F00C39BFB605B9418600CCD
:10027300401AD0E023F9D0E0F80203548AF0E948A9
:100283006003D2F0E4AFF0FAF9F8803BEB30E40D11
:1002930089F0EA6003D2F0E4AFF0F9CAF8EB30E397
:1002A3000D88F0EF6002D2F0AFF0E4CAC9F8EB5466
:1002B300076014FBC3EA13FAE913F9E813F8EF1321
:1002C3005002D2E0FFDBEDD0E0C0E030E739C3E419
:1002D3009FFFF5F0EC98FC42F0ED99FD42F0EE9AA9
:1002E300FE42F0D0E0F9D0E0F8E5F0607AE923F9D6
:1002F300EE20E742D8028067C3EF33FFEC33FCED17
:1003030033FDEE33FE80EAEC28FCED39FDEE3AFED8
:10031300D0E023F9D0E0F84002801BC3EE13FEEDDA
:1003230013FDEC13FCEF135002D2E0FF08B80006F4
:100333007F7F74FF802EEF3350178CF020F0026024
:10034300100CBC000C0DBD00080EBE000408E860D4
:10035300DFE933E813FFEE2313FE4F4D4C8008E92A
:100363005480FFE4FEFDFCEE33EF33F47004FCFD38
:100373007E80D0E0FBD0E0FAD0E0F8D0E0CFC61822
:10038300CEC618CDC618CCC6F92212129D70041819
:1003930018182212127F700D74FFF61819F6181927
:1003A300F61819F622E7548066F61212E6700F1259
:1003B30012DC70F014F608F608F608F680D1121273
:1003C300DC700CF608F608768008E6447F80EC12B1
:1003D300112C700C1210ED60BFE65480F6E480BB64
:1003E3001210ED700519191980A5E869700C763F94
:1003F30018768018F618F6E8F922E6CDC0E018EC76
:10040300C0E0E633CD33CDD313F6E719FCE7191972
:1004130033CC33C3947F400ECD9D502408E65480E3
:10042300F6E418F6800FF4043D14501408E6447FF4
:10043300F6187680E418F618F6D0E0FCD0E0FD223A
:10044300CCD313CCFD18E4C6CBC0E018E4C6CAC0B5
:10045300E00808ED08C633E613F618E433C675F072
:1004630003C3CA97CA09CB97CB199C40047D088064
:100473002EBD000302053616B6FF0506060816183C
:10048300C3CA33CACB33CB33CA27CA09CB37CB1939
:100493003CC37D08803E187D0820E75CC633C6CA8E
:1004A30033CACB33CB33DDF1D5F0EB30E77BCA97DF
:1004B300CA09CB974ACB199C406F4B7025E620E0C5
:1004C300218066187D08C3CA97CA09CB97CB199CAC
:1004D300D3C633C6CA33CACB33CB3350C9DDE7D512
:1004E300F0E1D3E4C636C608C636C608C636C60823
:1004F300C636C61818188031C3CA97CA09CB97CB1A
:10050300199CB34097C633C6CA33CACB33CB33DD4A
:1005130034D5F02EC6A2E0C640C8CA27CA09CB37D5
:10052300194A70BECB3CB480B90808E63308E633F9
:10053300601F181818D0E0FAD0E0FBD0E0FCD0E040
:10054300FD22187D08CA27CA09CB37CB193CD380B3
:100553008013F618E4B67F11F618B6FF0EF618C628
:100563000470D20808768080CAF618F618F680C59B
:100573000012129D604F12127F6012E7548066F6DC
:100583001210EA70111212DC703B090909F4F61813
:10059300F618F618F62212112970151212E6080839
:1005A3000860EAE6447FF618768018E4F618F62227
:1005B3001212E660161212DC7012E4F608F608F660
:1005C30008E65480F609090918181822EAC0E0EB76
:1005D300C0E0ECC0E0EDC0E0E687F0A4FBACF008BF
:1005E300E687F0A42CFCE435F0FA1809E687F0A4BA
:1005F3002C4B60027401CA35F0FCE433FB09E68737
:10060300F0D2F7A42CCB35F0FC1908E687F0A42B25
:10061300CC35F0FBE433FD0819E687F0D2E7A42CD0
:100623004ACB35F0CD3400FC09E687F0D2E7A42DA0
:10063300CC35F0FDE433FA0918E687F0D2F7A42CA1
:10064300CD35F0CA3400FC08E687F0D2E7D2F7A430
:100653002ACC35F07A7E20E70B0ACB33CBCD33CDD2
:10066300CC33CC33CB3350147004ED30E00ED2F1E5
:10067300E4CD3DCDCC3CCC3B5005DA05C2F1EB5487
:100683007FC63308E63392F0FBE73309E733C39AB7
:10069300502D2B70190C0D4C4D70151806E608C320
:1006A30033700D20F10AA2F013F6E418800B4024F6
:1006B300E4F630F002768018F618F618F68024D3A4
:1006C3003B14501074FFA2F013F6187680E418F66A
:1006D30018F6800FA2F013F618E63303F618ECF6BB
:1006E30018EDF6D0E0FDD0E0FCD0E0FBD0E0FA223C
:1006F300C0E074F2120AB9E5A7F8E5A1F95854105D
:10070300600812222A53A1EF802AE8A2E0C0D0E9B0
:10071300A2E092F012119F158182F0501790619818
:10072300E0F89014ECE0C398A2D265D0335002E80D
:10073300F053A1FE7F01020B18C0E074F2120AB954
:100743009061A4E0F8759B00E59158540860087522
:1007530091F712226C802AE5915854106008759124
:10076300EF122272801BE8A2E0C0D0E591A2E092D2
:10077300F012119F158182F05007E0C2E0F01223BE
:10078300929061A3E0F8E5E9585404600E122368DF
:1007930075E9FB906193E0A2E640F28097C0E074B4
:1007A300F2120AB99061A5E0F8E5BF585404600657
:1007B30053BFFB1223AA020737C3E498F8E499F95D
:1007C3001207FD8026C3E49AFAE49BFBE920E7E9DC
:1007D3001207FDE498F8E499F922C3E498F8E49940
:1007E300F91207FDE498F8E499F9C3E49AFAE49B53
:1007F300FB22EB20E7CFE920E7E0B90010BB0008BC
:10080300E88AF084F8AAF022E4FBC8FA22EB70220B
:100813007B10C833C8C933C9335007C39AC3DBF24B
:1008230080069A50012ADBEAC833F4C8C933F4C9F5
:10083300FA2275F008E4C833C8C933C933C99AC961
:100843009B5004C92AC93BD5F0ECFBC833F4C8E478
:10085300C9FA2212089620F01430E72B74FFFCFB30
:10086300FA747F8022E4FCFBFA7480801AB4800857
:10087300BC00F2BB00EF800F50EBF9E4C39AFAE43B
:100883009BFBE49CFCE499C6CC18C6CB18C6CA18DB
:10089300C6F922E4C9C608CAC608CBC6D3330308BF
:1008A300CCC63392F0C3947F402E94184019C9B933
:1008B3000704CACBCC225025C309CA33CACB33CBD6
:1008C300CC33CC33D9F422F4600DC9CCC313CB138E
:1008D300CBCA13CAD9F6CC22E4FCFBFA2214FCFBE4
:1008E300FA22080808EAC0E0EBC0E086F0E7A4FAC1
:1008F300180986F0E7A42AFA180986F0E7A42AFA69
:10090300180986F0E7A42AFA1986F0E7A4FBE5F0B4
:100913002AFA190886F0E7A42BFBE5F03AFA19083E
:1009230086F0E7A42BFBE5F03AFA18180986F0E7FE
:10093300A4C5F02BFBE43AFA1908E7C5F0C6A426D0
:10094300F6E5F03BFBE43AFA1886F0E7A4F6E5F0A7
:100953000826F6E43B08F6E43A08F6D0E0FBD0E0DC
:10096300FA22080808E630E71112115212097D082D
:100973000808C64480C618181822181818E9799E62
:10098300C608CAC608CBC608CCC6C370207996CAA7
:10099300CBCC7019798ECBCC70137986CC700EF9D1
:1009A300802ACA33CACB33CBCC33CC331930E7F2EA
:1009B300CCCBCA3350147004EA30E00DE4CA3ACA0F
:1009C300CB3BCBCC3CCC500209C3E913C6CC182398
:1009D30013C6CB18C6CA18C6F922E4CFC0E0E4CECA
:1009E300C0E0E4CDC0E0E4CCC0E075F020C3E63362
:1009F300F608E633F608E633F608E633F618181871
:100A0300EC33FCED33FDEE33FEEF33FFC3EC97091C
:100A1300ED9709EE9709EF97191919400FFFEC9716
:100A2300FC09ED97FD09EE97FE191906D5F0BEEC0A
:100A3300F709EDF709EEF709EFF7191919D0E0FCFB
:100A4300D0E0FDD0E0FED0E0FF222518C582C0E053
:100A5300E51934FFC583C0E0E518C3958224F81077
:100A6300AF088583198582188008858319858218C4
:100A7300D2AFCEF0A3E520F0A37808E608F0A3DE1A
:100A8300FAEFF0A3E58124FAF8E608F0A3E608F00C
:100A9300A3E608F0A30808E608F0A3E608F0A31508
:100AA300811581D0E0FED0E0F8158115811581E82C
:100AB300C0E0EEC0E022C0D02518C582C0E0E51931
:100AC30034FFC583C0E0E518C3958224F310AF0853
:100AD3008583198582188008858319858218D2AF8A
:100AE300C8F0A3E9F0A3EAF0A3EBF0A37908E709C0
:100AF300F0A3D8FAECF0A3EDF0A3EEF0A3EFF0A38C
:100B0300D0E0F0A3D0E0F0A3D0E0F0A3E520F0A381
:100B1300E5F0F0A322851983851882E0C0E0A3E005
:100B2300F9A3E0FAA3E0FBA37808E0F608A3DFFA51
:100B3300E0FCA3E0FDA3E0FEA3E0FFA3E0C0E0A38D
:100B4300E0C0E0A3E0F5D0A3E0F520A3E0A3F5F037
:100B530010AF0885831985821880088583198582DB
:100B630018D2AFD082D083D0E0F8D0E0321212D1C5
:100B7300B90003020BB2E4900301786D7918800287
:100B8300F0A3D8FCD9FA901A6DAA82AB83900086A1
:100B930078CC79018015E493A3AC82AD838A828BF0
:100BA30083F0A3AA82AB838C828D83D8E9D9E775BE
:100BB30082887583DD7403120CAF7582A475832656
:100BC3007400120CAF12129D601C12127F60171278
:100BD30012E670071212DC7001D322C0D01212DCAD
:100BE3007006D0D0B322C32233D0D0501430E0F6F5
:100BF300C3E7960809E7960809E7960809E796B355
:100C03002220E0D5E6970809E6970809E697080940
:100C1300E697B32212129D601B12127F6016121206
:100C2300E670071212DC600CB322C0D01212DC7023
:100C330005D0D022C32233D0D0501330E0EBC3E72A
:100C4300960809E7960809E7960809E7962220E03F
:100C5300E4E6970809E6970809E6970809E6972264
:100C6300D083D082ECC0E0EDC0E0E493A3FCE49336
:100C7300A3FDED4C600D120D85EC24FFFCED34FF5C
:100C8300FD80EFE493A3FCE493A3FDED4C600D1210
:100C93000EB5EC24FFFCED34FFFD80EFD0E0FDD07A
:100CA300E0FCE493A3C0E0E493C0E022C0F0F5F0DD
:100CB300E59F5407C0E0E59F54F845F0D0F0F59F59
:100CC300E473859FF053F0F8D0E045F0F59F22D010
:100CD30083D082E59F5407C0E0E493C0E07401939E
:100CE300C0E07402935407C0F0F5F0E59F54F84553
:100CF300F0D0F0F59F22D083D082E9C0E0E493A343
:100D0300C386F0C5F095F0F908E493A386F0C5F027
:100D130095F0700BE493A3C3994005E9048002A303
:100D2300E475F002A42582F582E5F03583F583D0DE
:100D3300E0F9E493A3C0E0E493C0E022851983853E
:100D43001882E0A3FEE0A3F5207808E0A3F608DF0D
:100D5300FAE0A3FFE0A3C0E0E0A3C0E0E0A3C0E0AB
:100D6300E0A3C0E0E0A3C0E010AF0885821885834C
:100D7300198008858218858319D2AFD083D0820267
:100D83000CC5C0E0C3E49396087401939618400F12
:100D9300E49366700808740193661870007019A3D1
:100DA300A3C3E49396087401939618A3A3400DD0AC
:100DB300E0D0E0D0E0020C9FA3A3A3A3A3A3D0E0C1
:100DC30022D083D082C5F0E493A3C5F0C395F0F598
:100DD300F0E493A3C395F04005E5F0048001E475C6
:100DE300F002A42582F582E5F03583F583E493A32D
:100DF300C0E0E493C0E022C0E074F2120AB9E589CE
:100E0300A2E150031220E0758900C2C57F01020BE5
:100E130018C0E074F2120AB9E58BA2E05003122065
:100E2300E0758B00C2E880E47404800474028000DF
:100E3300CCC0E0EDC0E0E518C39CCCAD1950011D5A
:100E430010AF068C188D1980068C188D19D2AF122D
:100E53000F79D0E0FDD0E0FC2274028000CCC0E02A
:100E6300EDC0E0E518C39CCCAD1950011D10AF06D1
:100E73008C188D1980068C188D19D2AF120F57D08C
:100E8300E0FDD0E0FC2212129D602512127F60204B
:100E93001212E670030212DC080808E766701018E5
:100EA30019E766700A1819E76670041819E76622CD
:100EB300F422C0E0C0F088F0E4936670080874017F
:100EC3009366187000A8F0A3A3700BD0F0D0E0D005
:100ED300E0D0E0020C9FA3A3D0F0D0E022D083D0D7
:100EE30082CCC0E0E493A36006120FB91470FAE455
:100EF30093A360061210A91470FAD0E0FCE493A344
:100F0300C0E0E493C0E022C0E074F2120AB91221F7
:100F13006A7F01020B18C0E074F2120AB912217041
:100F230080EFC0E074F2120AB912217680E3C008A0
:100F3300C3E096F50808A3E096420808A3E09642AA
:100F43000808A3E0964208A2D265D033E5087001F1
:100F5300D3D00822CAC0E0E493A3C582CCC582C51E
:100F630083CDC583F0A3C582CCC582C583CDC5839C
:100F7300DAE5D0E0CA22CAC0E0E0A3C582CCC582CC
:100F8300C583CDC583F0A3C582CCC582C583CDC53A
:100F930083DAE6D0E0CA227009080808226016182E
:100FA3001818C6C333C608C633C608C633C608C630
:100FB30033C6D5E0EA22C0E0E493A3D39C5010E407
:100FC30093A3C39C400AD0E0D0E0D0E0020EFDA37F
:100FD300A3A3D0E022C008C3E096F50808A3E096D7
:100FE300420808A3E096420808A3E096450870016A
:100FF300D3D008222518F58210AF08F51840021542
:10100300198008F51840021519D2AF851983227487
:1010130004800A74038006740280027401C0E0F441
:1010230004120FF7D0E01212AC22BB0102E722C078
:1010330082C08389828A83BB0003E08002E493D069
:1010430083D08222C0D0251810AF08F518500205AE
:10105300198008F51850020519D2AFD0D0226016B6
:10106300080808C6C313C618C613C618C613C6187D
:10107300C613C6D5E0EA22C3E0C696F608A3E0C6C7
:1010830096F608A3E0C696F608A3E0C696F622C035
:10109300E074F2120AB9C2C0E5D1A2E450031221EE
:1010A300A07F01020B18C0E0E493A36C7009D0E0A9
:1010B300D0E0D0E0020EFDA3A3D0E022251810AFAC
:1010C30008F518400215198008F51840021519D2C1
:1010D300AF22E066701008A3E066700A08A3E0661A
:1010E300700408A3E06622181818E6084608700A78
:1010F300E608C3337005E633F4220822C3E79608F3
:1011030009E7960809E7960809E796A2D265D0335E
:1011130022C3E09608A3E09608A3E09608A3E0960E
:10112300A2D265D03322191919E7094709700AE7D2
:1011330009C3337005E733F4220922C3E096F008AC
:10114300A3E096F008A3E096F008A3E096F0221837
:101153001818E4C396F608E496F608E496F608E44D
:1011630096F622E026F608A3E036F608A3E036F664
:1011730008A3E036F622E026F008A3E036F008A341
:10118300E036F008A3E036F022E627F60809E63752
:10119300F60809E637F60809E637F622C0E0E8C0A4
:1011A300E0E58124FCF8E6A2E7D0E0F8D0E022E60F
:1011B30057F60809E657F60809E657F60809E65709
:1011C300F622E056F608A3E056F608A3E056F60822
:1011D300A3E056F622E647F60809E647F60809E6CD
:1011E30047F60809E647F622700422600D18C6C3C5
:1011F30033C608C633C6D5E0F41822E056F008A378
:10120300E056F008A3E056F008A3E056F022C3E04E
:101213009608A3E09608A3E09608A3E09622C6F4F6
:10122300C608C6F4C608C6F4C608C6F4C622600DCE
:1012330008C6A2E713C618C613C6D5E0F322C3E750
:10124300960809E7960809E7960809E7962275D0F4
:101253000075814075180175190300020B70600C4D
:1012630008C6C313C618C613C6D5E0F422E6F008B1
:10127300A3E6F008A3E6F008A3E6F022E70947098E
:10128300C3134709336002E733F422E0F608A3E00F
:10129300F608A3E0F608A3E0F622E6084608C3131F
:1012A3004608336002E633F422CAC0E0E6F0A3083E
:1012B300DAFAD0E0FA22E0FAA3E0FBA3E0FCA3E031
:1012C300FD22EAF0A3EBF0A3ECF0A3EDF022E5C7D7
:1012D30054F84401F5C7790122E7C3331947194785
:1012E300194722E6C333184618461846222518F52F
:1012F30082E43519F58322120CD2DF2D00120CD2B1
:101303001F2E00120CD2402E00120CD28D2E001272
:101313000CD2672F00120CD2183000120CD2A83056
:1013230000120CD2983100120CD2DB3100120CD215
:10133300003200120CD2563200120CD27B32001251
:101343000CD2A03300120CD2143400120CD2373456
:1013530000120CD25A3400120CD2823400120CD276
:10136300943400120CD29E3400120CD22235001297
:101373000CD2913500120CD23A3600120CD24236FE
:1013830000120CD2E33600120CD2433700120CD2F7
:101393000F3800120CD2863800120CD2C338001258
:1013A3000CD2223900120CD26F3A00120CD28B3AB3
:1013B30000120CD2ED3A00120CD28A3B00120CD26E
:1013C300D13B00120CD26C3C00120CD2193D00121E
:1013D3000CD2573D00120CD2C73D00120CD2123E64
:1013E30000120CD24B3E00120CD2793F00120CD2E9
:1013F300B34000120CD2144100120CD25D41001212
:101403000CD2854100120CD2084200120CD2884241
:1014130000120CD2024300120CD2274300120CD24A
:101423009D4300120CD2414400120CD2D744001247
:101433000CD2FE4400120CD2234600120CD23646C4
:1014430000120CD2C54600120CD2E54600120CD293
:101453007D4700120CD2C74700120CD20948001274
:101463000CD2F54800120CD2F84A00120CD2024BEF
:1014730000120CD20C4B00120CD2164B00120CD2E1
:10148300204B00120CD23A4B00120CD2444B0012E8
:101493000CD24E4B00120CD2584B00120CD2794B8B
:1014A30000120CD2C74B00120CD2D14B00120CD23B
:1014B300F54B00120CD2194C00120CD2764C0012D0
:1014C3000CD2C14C00120CD2DF4C00120CD24F4D87
:1014D30000120CD28C4D00120CD2D34D00120CD240
:1014E3003B4E00120CD2DF4E00120CD2AC50001255
:1014F3000CD2CF5000120CD2A15100120CD2C75102
:1015030000120CD2A75200120CD23F5500120CD27B
:10151300A15600120CD2685800120CD2BA5800120D
:101523000CD2B35900120CD2005A00120CD26B5ACF
:1015330000120CD2755A00120CD2315C00120CD27C
:10154300605D00120CD2C05D00120CD2765E0012F8
:101553000CD25E5F00120CD21B6100120CD23A61F6
:1015630000120CD2966100120CD26E6200120CD2E1
:10157300936200120CD2E46200120CD2C663001212
:101583000CD2FE6300120CD23E6400120CD2A16492
:1015930000120CD2BD6500120CD21D6600120CD2D3
:1015A300036700120CD20B6900120CD227690012D8
:1015B3000CD2CC6A00120CD2126B00120CD2F06B5C
:1015C30000120CD24A6C00120CD2926C00120CD294
:1015D300026D00120CD2906D00120CD2146E001228
:1015E3000CD2806E00120CD2E68B01120CD2388C16
:1015F30001120CD2728E01120CD2BE8E01120CD2C9
:10160300908F01120CD2FF8F01120CD24291011262
:101613000CD28F9301120CD2B69401120CD21D9DE1
:1016230001120CD29A9D01120CD21AA001120CD2F3
:1016330006A101120CD2B2A101120CD2E3A2011233
:101643000CD2D6A301120CD2EDA601120CD2EFA834
:1016530001120CD24FA901120CD210AA01120CD202
:101663003BAA01120CD2DCAA01120CD2C0AB0112AC
:101673000CD29BAC01120CD22FAD01120CD25CAD7B
:1016830001120CD27EAD01120CD271AF01120CD239
:1016930051B001120CD29EB001120CD2FFB0011254
:1016A3000CD2C1B101120CD2F6B101120CD244B268
:1016B30001120CD274B201120CD2B2B201120CD2CA
:1016C3000AB301120CD20FB301120CD26AB3011286
:1016D3000CD292B301120CD2B1B401120CD21DB5CB
:1016E30001120CD287B501120CD213B601120CD21F
:1016F3002AB901120CD2F6B901120CD266BB01123F
:101703000CD2BABD01120CD262BE01120CD217BFA9
:1017130001120CD2A5C001120CD242C101120CD28B
:101723008AC101120CD226C301120CD23AC3011290
:101733000CD247C301120CD262C301120CD26EC386
:1017430001120CD28CC301120CD289C501120CD226
:101753007CC601120CD2C0C601120CD243C70112BF
:101763000CD244C801120CD202C901120CD2A1CA74
:1017730001120CD276CB01120CD217CC01120CD26F
:10178300A7CC01120CD2BECC01120CD2F7CC0112A1
:101793000CD201CD01120CD20DCD01120CD22BCDE6
:1017A30001120CD26FCD01120CD2C0CD01120CD29A
:1017B300E1CD01120CD2FBCD01120CD273CE01127A
:1017C3000CD2B4CF01120CD2FECF01120CD2F1D045
:1017D30001120CD20DD101120CD270D101120CD214
:1017E300C5D101120CD283D201120CD292D30112B1
:1017F3000CD23ED401120CD215D501120CD281D5D4
:1018030001120CD215D601120CD2E5D601120CD25C
:1018130014D701120CD273D701120CD221D80112A2
:101823000CD247D801120CD2BFD801120CD2E4D883
:1018330001120CD207D901120CD242D901120CD2D7
:1018430020DB01120CD203DC01120CD2BBDC01122F
:101853000CD250DE01120CD2A4DE01120CD2E7DE50
:1018630001120CD256DF01120CD2CADF01120CD2C4
:1018730023E001120CD249E001120CD284E00112E0
:101883000CD2B0E001120CD2FBE001120CD254E1F5
:1018930001120CD2D0E101120CD2AEE201120CD231
:1018A30040E401120CD2ADE401120CD2D6E40112D1
:1018B3000CD23CE501120CD293E501120CD2CCE51B
:1018C30001120CD221E601120CD246E601120CD20F
:1018D3008CE601120CD2A9E601120CD253E70112D5
:1018E3000CD294FA03120CD2DFFA03120CD26C80DE
:1018F30002120CD2A08002120CD2768102120CD2F8
:101903004A8202120CD2758302120CD2F98402129B
:101913000CD2778502120CD23E8602120CD25F875C
:1019230002120CD2D18702120CD2338802120CD2CB
:10193300818802120CD28B8802120CD2C98802123F
:101943000CD2328902120CD2D18902120CD24F8AE4
:1019530002120CD2048B02120CD2768B02120CD21E
:101963009C8B02120CD2CC8B02120CD2F98B02127A
:101973000CD29F8C02120CD2AF8C02120CD2028DAD
:1019830002120CD20E8D02120CD21A8D02120CD23C
:10199300238D02120CD2848D02120CD2E48D02121A
:1019A3000CD2358E02120CD2508E02120CD2808EC3
:1019B30002120CD2A18E02120CD2AD8E02120CD2E4
:1019C300EE8F02120CD20C9002120CD275900212FE
:1019D3000CD2889002120CD29F9002120CD2329138
:1019E30002120CD2319202120CD22D9302120CD29B
:1019F300AF9302120CD2B99302120CD21C940212AE
:101A03000CD22D9402120CD2709402120CD2B79401
:101A130002120CD2ED9402120CD2239502120CD2B4
:101A2300419502120CD2659502120CD2A6950212B0
:101A33000CD2999602120CD2DF9602120CD21A978C
:101A430002120CD2799702120CD2A19702120CD275
:101A5300DA9702120CD2E89702120CD249980212BA
:101A63000CD2869802120CD2C89802120CD2F998A2
:101A730002120CD22D9902120CD2389902120CD2F6
:101A8300569902120CD21E9A02120CD2289A0212F2
:101A93000CD26D9A02120CD2D79A02120CD2EB9A84
:101AA30002120CD2E39B02120CD2F69B02120CD24E
:101AB3000B9C02120CD2AB9C02120CD20F9D021291
:101AC3000CD2D29D02120CD2DD9D02120CD2FC9ECE
:101AD30002120CD2189F02120CD2709F02120CD267
:101AE300A79F02120CD2C19F02120CD235A0021280
:101AF3000CD2C6A002120CD20EA102120CD229A340
:101B030002120CD293A302120CD2FEA302120CD225
:101B130057A602120CD267A602120CD26AA60212B0
:101B23000CD276A602120CD28AA602120CD292A66C
:101B330002120CD2C7A602120CD275A702120CD243
:101B4300E5A702120CD249A802120CD2E2A8021293
:101B53000CD27CA902120CD2AAA902120CD240AA5E
:101B630002120CD26FAA02120CD291AA02120CD248
:101B7300B8AA02120CD21EAB02120CD288AC02120B
:101B83000CD28BAC02120CD202AD02120CD2EEAD0F
:101B930002120CD2C6AE02120CD250AF02120CD2F9
:101BA30085B002120CD237B102120CD270B10212FC
:101BB3000CD2A1B102120CD2AAB102120CD296B26B
:101BC30002120CD212B302120CD2A2B302120CD222
:101BD3006CB402120CD2F0B402120CD226B502126B
:101BE3000CD26FB502120CD254A803120CD262A805
:101BF30003120CD285E202120CD203A903120CD2F7
:101C030056A903120CD2F2AA03120CD2D2AC0312BD
:101C13000CD2B1AF03120CD2DDAF03120CD2FDAF65
:101C230003120CD25BB003120CD299B003120CD284
:101C3300D7B003120CD21DB103120CD209ED03125B
:101C43000CD239ED03120CD28EED03120CD239FDF6
:101C530002120CD2B4FD02120CD2BFFD02120CD23E
:101C6300E0FD02120CD2009F03120CD20A9F031252
:101C73000CD2A42D00120CD2C09F03120CD2E39FEE
:101C830003120CD283A003120CD232A303120CD280
:101C93003BA303120CD288A303120CD2B1A30312E9
:101CA3000CD211A403120CD2A7A403120CD2DBA4EE
:101CB30003120CD228A503120CD282A503120CD254
:101CC300B0A503120CD238A603120CD27DA60312C0
:101CD3000CD2BCA603120CD2F1A603120CD203A79A
:101CE30003120CD215A703120CD234A703120CD281
:101CF300EBA703120CD22BA803120CD2FDF803128C
:101D03000CD265E703120CD2C9E703120CD2EDE73C
:101D130003120CD2E6E803120CD2D26E00120CD2DC
:101D2300B16F00120CD2ED6F00120CD28A71001247
:101D33000CD2CC7100120CD2807300120CD2C4737B
:101D430000120CD2A57400120CD2327500120CD200
:101D5300BD7500120CD2137600120CD2537600120A
:101D63000CD2F57700120CD27E7900120CD2957B3F
:101D730000120CD2A37B00120CD2087C00120CD2EE
:101D8300E17E00120CD25EFC03120CD274FC03122F
:101D93000CD236FB03120CD231DA03120CD244DA22
:101DA30003120CD2E2DA03120CD21DDB03120CD2A3
:101DB30038DB03120CD25DDB03120CD2A2DB03125D
:101DC3000CD2D3DB03120CD204DC03120CD27BDD66
:101DD30003120CD270F003120CD2DDF003120CD2FA
:101DE300F9F003120CD23BF103120CD24BF10312A4
:101DF3000CD2E3F103120CD2EDF103120CD205F273
:101E030003120CD2F5BE03120CD2B7BF03120CD2CD
:101E130067C003120CD2A5C003120CD247C1031230
:101E23000CD2E0C103120CD25BC203120CD29D8E02
:101E330003120CD2E88E03120CD2D88F03120CD2E9
:101E43006A9003120CD2B49003120CD203910312C2
:101E53000CD2179103120CD24B9103120CD2639242
:101E630003120CD2B59203120CD2D69203120CD2E7
:101E7300179303120CD24C9303120CD2A5930312A3
:101E83000CD2C39303120CD2269403120CD2A59541
:101E930003120CD2C79503120CD2FC9503120CD279
:101EA300249603120CD2319603120CD236960312E7
:101EB3000CD2399603120CD2859603120CD22A97B0
:101EC30003120CD24F9703120CD2599703120CD260
:101ED3005C9703120CD2D09703120CD2EB97031228
:101EE3000CD2FE9703120CD2399803120CD23C98F1
:101EF30003120CD2479803120CD2E9FA03120CD244
:101F030001FB03120CD2DCF701120CD22BF80112E5
:101F13000CD2CFF901120CD285FB01120CD2CDFBEE
:101F230001120CD213FD01120CD25EFE01120CD26F
:101F330080FE01120CD2CAFE01120CD24CFF011218
:101F43000CD251E402120CD272E402120CD2FCE461
:101F530002120CD285E502120CD201E602120CD257
:101F630064E602120CD2B0E602120CD21FE7021290
:101F73000CD2A9E702120CD220E802120CD262E8BA
:101F830002120CD222EC02120CD2FFED02120CD27E
:101F9300A3EE02120CD2E1EE02120CD27BF002127B
:101FA3000CD2D7F202120CD25EF302120CD254F40A
:101FB30002120CD2BEF702120CD2CEF702120CD2CE
:101FC3002EF902120CD2A9F902120CD2F1FA021262
:101FD3000CD20FFC02120CD2A3FC02120CD2008012
:101FE30003120CD2BF8003120CD2368103120CD21F
:101FF300DD8103120CD23A8203120CD21485031230
:102003000CD2CE8503120CD2338603120CD2DA879C
:1020130003120CD28E8803120CD2FE8803120CD248
:102023009C8A03120CD2CE8B03120CD2678C031240
:102033000CD25D8D03120CD2D39E03120CD2D69E0A
:1020430003120CD254E903120CD2A3E903120CD2EB
:102053005CEA03120CD2C2EA03120CD2FCDD0312B7
:102063000CD255DE03120CD2D4DF03120CD260F370
:1020730003120CD29AF303120CD255F403120CD2AE
:10208300BEEE03120CD2CCEE03120CD2ECFF011203
:102093000CD2FBF903120CD20BFA03120CD229FA5D
:1020A30003120CD28AFA03120CD2CDF503120CD20E
:1020B300F4F503120CD279F603120CD2D2F6031202
:1020C3000CD2DD9E03120CD2EBF603120CD20DF7E9
:1020D30003120CD277F703120CD282F703120CD23D
:1020E300C6F703120CD2929803120CD20D99031265
:1020F3000CD21B9903120CD25C9903120CD2769961
:1021030003120CD2F39903120CD2ED9A03120CD2E0
:10211300129B03120CD22F9B03120CD24C9B031263
:102123000CD27D9B03120CD2A59B03120CD2ED9B08
:1021330003120CD2689C03120CD2669D03120CD2BC
:10214300CCD603120CD2DAD603120CD254D7031214
:102153000CD220D803120CD2CCD903120CD208F221
:1021630003120CD241F203120CD25EF203120CD210
:10217300BCF203120CD221F303120CD295B9031251
:102183000CD202BA03120CD2B9BA03120CD226BB78
:1021930003120CD243BC03120CD2DFBD03120CD2C8
:1021A30043BE03120CD298BE03120CD2A1BE03127B
:1021B3000CD2B0BE03120CD2C3BE03120CD2D9BED2
:1021C30003120CD2E2BE03120CD206C403120CD2C9
:1021D30059C403120CD261C603120CD293C6031264
:1021E3000CD2B5C603120CD2CEC603120CD2E7C66C
:1021F30003120CD2E9C703120CD277C803120CD214
:1022030033EB03120CD265EB03120CD271EB031206
:102213000CD2A4EB03120CD2D5EB03120CD203ECB9
:1022230003120CD278EC03120CD2A7EC03120CD2DB
:102233007FE003120CD2A5E003120CD2E2E00312FA
:102243000CD2F4E003120CD210E103120CD27EE1A3
:1022530003120CD287E103120CD2E6E103120CD273
:102263000AE203120CD2C9E203120CD2D6E2031221
:102273000CD2E7E203120CD280FF01120CD2CDFF85
:1022830001120CD2A4D303120CD2ECD403120CD23D
:10229300F9D403120CD20CD503120CD22BD5031292
:1022A3000CD241D503120CD255D503120CD2CFD583
:1022B30003120CD265D603120CD2ADD603120CD284
:1022C300BDD603120CD2297F00120CD24D7F00120F
:1022D3000CD2757F00120CD29D7F00120CD215E335
:1022E30003120CD22EE303120CD23AE303120CD2E4
:1022F3004EE303120CD26CE303120CD276E3031207
:102303000CD280E303120CD293E303120CD2E7E363
:1023130003120CD220E403120CD24FE403120CD2AA
:102323009DE403120CD2ECE403120CD207E5031272
:102333000CD211E503120CD222E503120CD268E58C
:1023430003120CD281FB03120CD25BB103120CD229
:1023530087B103120CD2A3B103120CD2B6B103128C
:102363000CD2CCB103120CD238B203120CD26BB222
:1023730003120CD2C8B503120CD2F3B603120CD25B
:1023830026B703120CD28BB703120CD273B8031205
:102393000CD29BB803120CD2B0B803120CD2C0B843
:1023A30003120CD204B903120CD259B903120CD282
:1023B30069B903120CD29AF403120CD2B5F40312C6
:1023C3000CD2DEF403120CD2F8F403120CD21DF576
:1023D30003120CD23CF503120CD254F503120CD2A7
:1023E30082F503120CD29CF503120CD2C9FB031223
:1023F3000CD2DECF03120CD2E5CF03120CD2F1D0F4
:1024030003120CD221D103120CD247D103120CD2E6
:102413007AD103120CD28CD103120CD2C6D103127F
:102423000CD22CD203120CD265D203120CD2B1D22D
:1024330003120CD2DED203120CD2FED203120CD240
:1024430073E503120CD28BE503120CD27DE6031263
:102453000CD2FDF703120CD25CF803120CD29AF8DB
:1024630003120CD2DBF803120CD2B6C803120CD23F
:10247300D5C803120CD220C903120CD23CC90312D3
:102483000CD274C903120CD281C903120CD29EC997
:1024930003120CD281CA03120CD2B8CA03120CD293
:1024A300BFCB03120CD2CACB03120CD2DCCB031268
:1024B3000CD2E5CB03120CD2EFCB03120CD256CCC9
:1024C30003120CD2D0CF03120CD209FC03120CD28C
:1024D300259E03120CD24F9E03120CD2C27F001210
:1024E3000CD236FC03120CD27EFC03120CD28DE705
:1024F30001120CD2ABEC01120CD219E102120CD274
:10250300C1DE02120CD2E3DD02120CD2C4DD0212D0
:102513000CD244DD02120CD2F3DC02120CD2A2DC88
:1025230002120CD2E6DB02120CD258DB02120CD2DE
:102533004BDB02120CD2802D00120CD2652D00123F
:102543000CD21ED802120CD2C3D502120CD2F52C17
:1025530000120CD2232C00120CD267D402120CD21C
:10256300BBD302120CD202D202120CD212D002122C
:102573000CD2A3CF02120CD248CF02120CD2D5CE6A
:1025830002120CD2ABCE02120CD299CC02120CD294
:1025930071CC02120CD216CC02120CD2F3CB021263
:1025A3000CD222CB02120CD2CACA02120CD234C9E8
:1025B30002120CD231C902120CD231C802120CD24F
:1025C30011C802120CD261C702120CD2E3C5021267
:1025D3000CD2AAC502120CD2892B00120CD2182BD2
:1025E30000120CD2F92A00120CD2E72A00120CD2E4
:1025F3001AE402120CD27BC502120CD278C5021265
:102603000CD26AC502120CD256C502120CD2FCE3DC
:1026130002120CD243C502120CD245C402120CD2D0
:10262300D5C302120CD29BC302120CD2529F0312C7
:102633000CD221E302120CD243C302120CD212C3F6
:1026430002120CD22AC002120CD2E8BF02120CD220
:10265300DCBF02120CD24FBF02120CD29DBE02127B
:102663000CD23CBC02120CD2A6B902120CD270B925
:1026730002120CD204B802120CD2B3B702120CD25B
:10268300F7B602120CD2CAB602120CD21CB6021250
:102693000CD2EFB502120CD2B5B502120CD2CBA8F4
:1026A3000300000080FBC2C732E473000136360129
:1026B30001000102010001030100010401060605F6
:1026C300020000070100340801000F090401010D95
:1026D3000100FF0E08000017020000190100FF1A95
:1026E3000100011B0100FE1C0100081D0200001F68
:1026F30001000120010001210200002301000F2439
:102703000200002601000127010008280200FF2A19
:102713000100072B0102402C0100002D0100012EB6
:102723000100012F0100FF30010B1C310800003AAA
:102733000100083B01000F2F01000003027102306A
:102743000160021102700201020202020280021001
:102753000261023A004100630273027202620243A1
:1027630002000213023800000200020402120200F7
:102773000200020002000204020402370037003C98
:102783000244020002390000020002650200023521
:10279300028102000205028202830200020101712A
:1027A3000101010101110101013101010101018057
:1027B30001100161013B00140063017301720162A6
:1027C3000143010001130106013D0135000401121B
:1027D3000100010001000100010401040133013380
:1027E300013C014401320136000001000165010092
:1027F300013500810100010501820183010001030C
:10280300047104020460041104700402040204014C
:1028130004020410046104000414046304730472C6
:1028230004620443040004130406040004000404C3
:1028330004120400040004000400045104640000B2
:1028430004000400044404000400040004000465BC
:1028530004000435048104640005040004830400B7
:1028630004010371030103010301030103010322B3
:10287300030203010310030003000300030003002A
:1028830003000300034203000324030603000300C1
:10289300030403120325032303250323030403046F
:1028A30003000300030003440300030003230300A6
:1028B30003650321003503810300030503000300BF
:1028C3000300030300710030016000110070003148
:1028D3000220035004800010006100000014006314
:1028E3000073007200620043000000130006000042
:1028F30000000004001200000000000000000004BB
:10290300000400370037003C0244000000000000D0
:102913000000006500000035008100000005000094
:10292300008300000036000100060000000F0000D5
:10293300000000000000000000000003FFFF000093
:102943000403FFFF0000FFFF0FF4010005C40403AD
:1029530020000100000B0000000000000000030144
:102963000F0000F61F1300961F0100F61F02006000
:102973001F0300661F04006C1F0500721F06007E04
:102983001FFFFF0000012416065416084E160B60A5
:102993001610AC15022A160542160730160C0C1633
:1029A3000D1816FF000003000300040008001000C8
:1029B3001F003E007B00F600EC01D703AF075D0F5D
:1029C300B91E713D00002C1A5C1A321A381A561AB5
:1029D3004A1A441A621A681A6E1A7A1A3E1A261A80
:1029E300201A03EAF5E5D5D5C5B5A5959585857571
:1029F30075656555554545353525251515059C36AC
:102A0300063A703DD9404344AD47174B814EEA51D6
:102A130000160F00000B150B020002220F320000FC
:102A230006000102030405060708090A0B0C0D0E34
:102A33000F161B281B2E1BF619341BF019FC1988C3
:102A43001BA61BAC1B8E1B9A1B941B30192A1966E1
:102A5300196C1960191819303017181921301B1DFA
:102A63001F3000034948424D181725050200383C22
:102A73003E363B3B352B432C303016181920231A96
:102A83001C1E300C0E020B040B0A0708000F00017A
:102A9300191618161615230300501A741AA01B8052
:102AA3001A861A7C1B3A1B401B4C1B461B3C1942C3
:102AB30019361972190005150D09100804000000D4
:102AC30000000048195A1900BE040A0E001500043C
:102AD30000010309280C05100C0A090004000C046A
:102AE3000F100808C082C0838A828B83E0D2E7F08C
:102AF300121ECA0247C0C082C0837900125172906D
:102B030003321259A3C3EA9CEB9D50061231C060F5
:102B130001090247C074F7120A4DEA125859EB1221
:102B23005BFC122D41AEF075F00BEDA42EFD90036E
:102B330034E02CFEA3E03DFFEA2403FCEB3400FD6C
:102B4300740169600574026970278A828B83A312FA
:102B5300517C8E828F83A31244D1740269701DEC61
:102B6300FAEDFB122536E97013E48E828F83F08031
:102B73000BEE2403FAEF3400FB12253CEEFAEFFBD5
:102B83001225EA023AE874F2120A4D8A088B09EA1E
:102B9300240BF50CEB125E6179008A828B83E06073
:102BA3006F890A890B805EE50A75F00BA4FAACF015
:102BB30075F00BE50B122F527048AE82AF83850878
:102BC300828509831268DA12300CA3125C02124761
:102BD30059E5082403FCE5093400FDEE24030A0A41
:102BE3000AEF3400FB12253C850C82850D83E50A30
:102BF300F0A3E50B124CBB1225EA790190033212C4
:102C03006104122C16122F4AE50A9AE50B9B409792
:102C130002443CE50A2401F50AE50B3400F50B22D6
:102C230074F1120A4DEAFEEBFF740F1212F0124018
:102C330073750E01850882F583A385820C85830D48
:102C4300EE240BF8EF3400F9EC7001ED6030EC1278
:102C53005859ED1244C77901EEFAEFFB1225DEE570
:102C6300087002E5097003022CEE850C82850D8342
:102C7300125E667902AA08AB091225DE806DEE2486
:102C830003F50AEF122C1EE5087002E50960331202
:102C93005857E5091244C7E5082403FAE509340047
:102CA300122F42700CEEFAEFFB1225D8E9F50E80D5
:102CB300B9AA0AAB0B122F4370317903EEFAEFFB7B
:102CC30080B78E828F83A3E064FE7004A3E064FF69
:102CD300700A0A0A0AAB0B122F43700CEEFAEFFBD1
:102CE3001225D8E9F50E8003750E00A90E7F0702A1
:102CF3000D3F74F7120A4D9003321244D1EA70016A
:102D0300EB6031EA75F00BA4FAACF075F00BEBA4B1
:102D13002CFBEAFEEBFF121D0E9003341244D190FC
:102D23000334E07002A3E06012EEFCEFFD790012C1
:102D33001C788007900334E4F0A3F0023AE8125CB5
:102D43002BEC75F00BA4FC22E875F00BA4F8AAF0A9
:102D530075F00BE9A42AF9900334E02822EE98EFEA
:102D63009922C082C083EC7001ED60051224648057
:102D7300097C087D007900121C780247C074F612A2
:102D83000A4D7900EA7001EB60147C008C08126331
:102D9300B5600479017C080CECC3940840EE02474B
:102DA3007874F7120A4D74F31210BFECFEEDFFE4D2
:102DB300851882851983F074011212F01240AB1248
:102DC300130C74031212F0AC82AD83EEFAEFFB1214
:102DD300253CEEFAEFFB122536023AE374F7120AAA
:102DE3004D74F31210BFECFEEDFFE48518828519D4
:102DF30083F0EAFCEBFD74031212F01240E074015D
:102E03001212F0125C0212475A74FE68700374FFC8
:102E1300696004790180027900023AE374F7120AC7
:102E23004DEAFEEBFF122E6D7010122E7864FFFC3C
:102E33008A828B83E05CF01225EA02439874F712CE
:102E43000A4DEAFEEBFF7508008E828F83E0601760
:102E5300122E6D7012122E78FC8A828B83E05C70C6
:102E630006E04CF01225EA0243981225E4E9F5083E
:102E73007401650822EE12469D124AF4122D4BFA94
:102E8300A3E039FB8E828F83E02274F0120A4D8A0D
:102E9300088B09EA2403FEEB3400FF7C007D000A63
:102EA3000A0AFB12253CE508240BF50CE509125E22
:102EB300617900850882850983A385820A85830B4E
:102EC300E064FE7004A3E064FF60658908890980FB
:102ED30054E50875F00BA4FAACF075F00BE5091294
:102EE3002F52603E850A82850B83126AB9A3E06C78
:102EF3007003A3E06D702BEA2403F50EEB3400F5A9
:102F03000F122F3F700BAC0EAD0FEEFAEFFB122535
:102F13003C850C82850D83125D3679019003321254
:102F23004073124760122F4AE5089AE5099B40A1B6
:102F33008005740D1210477F08020D3F0A0A0AFB31
:102F4300122536E9640122900332125186C322A46A
:102F53002CFB900334E02AFAA3E03BFB8A828B83A9
:102F6300E0540F2274EF120A4D8A828B83A3858269
:102F73000E85830F125E66EA240BF508EB12476891
:102F8300850882125E64751000EA2403F50CEB34A5
:102F930000F50D122F3F7065750A00750B00805503
:102FA300E50A75F00BA4F8AAF075F00BE50B1230E7
:102FB30007540F603DAE82AF83EE2403FCEF340071
:102FC300FDAA0CAB0D12245EE9640170258E828F7D
:102FD30083A31246A7850E82850F83E8F0A3E91227
:102FE300300CE50AF0A3E50BF075100190033212E3
:102FF3006104122C16900332123F6640A3A9107F7E
:1030030009020D3F123096E02212301022F085089B
:10301300828509832274F3120A4DEAFEEBFF8E8246
:103023008F83A385820A85830B125E66EE2403F5E4
:1030330008EF1247687C007D000A0A0AFB12253C50
:10304300EEFAEFFB1225E4E9F50C7401650C703E12
:10305300EE125859EF1230A075F00BA4F8AAF075D0
:10306300F00BE9123096A312517C850A82850B83FB
:103073001244D1E82403FEE93400FFEEFAEF122FE5
:1030830042700BEEFCEFFDAA08AB0912253CA90C1C
:10309300023B85122D57F8A3E03902508D1246A248
:1030A300124AF4E82274EE120A4D74E61210BFEAD3
:1030B300FEEBFFEE240BF50AEF122C1E850A82129B
:1030C3005E64750E017508007509007510007511B1
:1030D30000E4851882851983F0EE2403FCEF3400A5
:1030E300FD74031212F0AA82AB8312253C8E828FE9
:1030F30083A385820C85830D851882851983AA8213
:10310300AB83121312E964017034740B1212F012C0
:1031130046A7850A82850B8312475A74011212F05F
:103123001246A7850C82850D83E0687003A3E069CE
:103133006055851882851983858208858309740DF6
:103143001212F0E4125D27F8A3E0F9740E1212F0E4
:1031530012475A740D1212F0AA82AB8312130CE9B0
:103163006401700B740D1212F0858210858311783F
:103173001012101AAC08AD09EEFAEFFB12255474C5
:1031830002121047E9F50EEEFAEFFB121306A90E31
:10319300741A0259F8C082C0837800790080031240
:1031A3003919122F4AE89AE99B500DE8FAE9FB1204
:1031B30031C070EB7900800279010247C0EA75F0F3
:1031C3000BA4FAACF075F00BEBA42CFB90033412B8
:1031D3006C41F583E0540F22C082C083902AD01241
:1031E3003A83EC75F012A4FCAAF075F012EDA42A50
:1031F300FD79FF7A167B15121C780247C074F6120C
:103203000A4D7E007F007C007D0080348C088D0990
:10321300E50875F012A4F508ABF075F012E509A402
:103223002BF509E508241AF582E5093415F583E041
:10323300FBC3994008EAC39B4003123CEE123714C8
:103243001236ACC3EC9508ED950940C0EEFAEFFBDE
:10325300024778C082C0837800790080031239194D
:10326300902AD0123C63500912361E64FF70EE8020
:10327300047A007B000247C074F0120A4D74F31203
:1032830010BF8A0A8B0BECFEEDFF890CEE7001EF89
:103293006011EEFAEFFB1213608A088B09EA7001E2
:1032A300EB70501213368A088B09EA7001EB604306
:1032B3007401851882851983F01212F0E50AF0A3D0
:1032C300E50BF0EEFCEFFD74031212F012340D74F3
:1032D3000B1212F01246A7124752E48508828509A1
:1032E30083A3A3A3A3A3A3125C23AA0AAB0B121861
:1032F30070800BE5087002E50970030233857A00DC
:10330300E50C6007C3940550027A04850882850999
:1033130083125D55A3A3A3E50CF0EA850882850912
:1033230083A3A3A3A3A3F07402850882850983A3BF
:10333300A3A3A3A3A3A3A3F0740185088285098390
:10334300A3A3A3A3A3A3A3A3123399A3A3A3F0E5C6
:10335300082410F582E509125BFCE4F0123399F0BE
:10336300125857E509125BFCE4F0908B5A780C1263
:10337300128EE508240CF582E509125BFC780C1229
:10338300127012357F4005E4901A71F012174AAAA1
:1033930008AB09022F35A31246B6025C1574F2126C
:1033A3000A4D74F31210BF8A088B09ECFEEDFF750A
:1033B3000A00EEFAEFFB1213608A0C8B0DA80CA91E
:1033C3000DE87001E9603E88828983E06508700436
:1033D300A3E06509602F88828983A3A3A3A3E0C325
:1033E30094055021125D327401851882851983F08A
:1033F3001212F0125D36EEFCEFFD74031212F0129E
:10340300340D750A01A90A0244371240E712131E4C
:103413002274F6120A4D1234787002E5836010A309
:10342300A3A3A3E06009C394055004790180027942
:103433000002477874F6120A4D1234787002E5835D
:103443006010A3A3A3A3E06009C39403500479010C
:103453008002790002477874F6120A4D12347870AC
:1034630002E583600BA3A3A3A3E0700479018002A8
:10347300790002477812135A8A828B83E58222C02D
:1034830082C083EAFCEBFD7A007B001213660247DD
:10349300C0C082C0837C007D0080F074F2120A4DAC
:1034A30074F31210BF8A0C8B0D8C0A8D0B7E007F78
:1034B3000080211237FE1212F012351660137403C6
:1034C3001212F0AC82AD83AA0CAB0D12245EE9702C
:1034D30035123CEE902AD0123CFE50301236C860B2
:1034E300F0E50C7002E50D70CA74FF650A70047490
:1034F300FF650B60DC850882850983E0650A70043B
:10350300A3E0650B70CBAA08AB0980047A007B00AB
:10351300024437E8F0A3E912410B121318E92274AD
:10352300F4120A4D74F31210BF7508001213608A67
:103533000A8B0BAE0AAF0BEE7001EF602A740185A4
:1035430018828519831246DFF8A3E0F9740B12126F
:10355300F01241031213007C127D0079FFEEFAEFA3
:10356300FB121C7875080112357F50097401901AFB
:1035730071F012174AA908740D0248017A04790000
:10358300121330902AD0123D04EA98EB992274F773
:10359300120A4DE9FE74FE6A700374FF6B780079BA
:1035A300007005804D123919902AD012390C5042FF
:1035B300E8FCE9FDEC75F012A4FCAFF075F012ED38
:1035C300A42FFDEC2416FCED3415FD8C828D83A312
:1035D300A3A3A3E064FF60CD8C828D83E06A7003B4
:1035E300A3E06B70C08008EC6005C39405401C1217
:1035F3003919902AD0123C63501A12361EFCEE7011
:10360300E674016C600574036C70E48A828B831228
:10361300517C80047AFE7BFF023AE8E8FAE9FBEA90
:1036230075F012A4FAACF075F012EBA42C12373338
:10363300221213720247C0C082C083790180F274E0
:10364300F0120A4D8A0A8B0B7A0479011213308A1D
:103653000CEA7001EB6040EAC333FAEB33FB121D53
:103663000E8A088B09AE08AF09EE7001EF60237A6A
:10367300FE7BFF12137874FE6A700374FF6B601B8A
:103683008508828509831244D1E508240212476420
:1036930080E1750C0080047E007F00850A82850B23
:1036A30083E50C124CBB022F3A902AD01236B32278
:1036B300E493F508740193F50922902AD0E493FA70
:1036C300740193FB22EEF8EFF9E875F012A4F8AA5F
:1036D300F075F012E91237E3A3A3A3A3E064FF227A
:1036E30074F7120A4D7C007D0080041912371412FE
:1036F300370B500D12371DC3940550F0E970EC8061
:10370300047A007B00023AE81236BDC3EC9AED9BC3
:1037130022EC24010CED3400FD22ECFAEDFBEA75FA
:10372300F012A4FAAEF075F012EBA42E1237332286
:10373300FBEA2416FAEB3415FB8A828B830265B20B
:1037430074F3120A4D74F31210BF750A00750B005F
:103753008052E50C125BE98E828F83125DAEE068C6
:103763007003A3E069602574011212F0E06870032E
:10377300A3E0696017EE2402FCEF3400FD7403122A
:1037830012F0AA82AB8312245EE96007EEFAEFFB24
:1037930012187C050C902ADAE493FAE50CC39A40DC
:1037A300B1122C161237F6E50A98E50B99502CE561
:1037B3000A75F012A4F8AAF075F012E50B1237E3BC
:1037C300E064FF7004A3E064FF60D61237FE1212B8
:1037D300F012351660CB750C0080BA740D023B8273
:1037E300A42AF9E82416F508E93415F509850882B1
:1037F300F58322902AD0E4123D05227401851882B4
:103803008519831246B6124AF4740B2274F6120A0F
:103813004D123E08123A83EC8508F0A4CCAAF08539
:1038230009F0A42AFA8508F0EDA42AFD79FF7A2D80
:103833007B1A121C7890033774A2F0A37413F090D0
:103843000339749CF0A37413F090033B74C6F0A384
:103853007413F090033D74D8F0A37413F090033FF6
:1038630074DEF0A37413F090034174E4F0A37413B3
:10387300F090034374EAF0A37413F0E4900336F07A
:10388300024778C082C08378007900800312391917
:10389300123C605024E8FAE9FBEA75F00EA4FAAC96
:1038A300F075F00EEBA42CFBEA242DF582EB12420B
:1038B300FA70DAAA82AB8380047A007B000247C0E5
:1038C30074F7120A4D7A007B0078007900802FE8A4
:1038D300FCE9FDEC75F00EA4FCAEF075F00EEDA462
:1038E3002EFDEC242DF582ED1242FA600EA3A3A364
:1038F300A3A3E0FCEA2CFAEB3400FB123919902A5B
:10390300D212390C40C9023AE8E493FC740193FDE6
:10391300C3E89CE99D22E8240108E93400F92274F4
:10392300EC120A4D89108A088B098C0D8D0C7414C6
:103933001212F01261047E007F00121402AA08AB77
:10394300091214088A0E8B0F850882850983A3A3A5
:10395300A3A3A3A3A3A3E0640170077508018E09C1
:1039630080058E08850D0974FE650E700474FF656D
:103973000F7003023A668E0D8002050D850D1290BD
:103983002AD21268FB5071E50D75F00EA4242DFEAA
:10399300E5F0123DC1651070E1A3E0650870DB8EB0
:1039A300828F83A3A3E0650E7004A3E0650F70CA42
:1039B3008E828F83A3A3A3A3E0650970BD750D0059
:1039C300E50DC3950C4003023A66E50DC333F8E4F5
:1039D30033F9E50A28F508E50B39F509850882125C
:1039E30066FB1213AEE9700C8508828509831266A3
:1039F300FD1213BA050D80C81213968A128B13AEEB
:103A030012AF13EE7001EF605A8E828F83E510F0D0
:103A1300A3E508124743A3E50EF0A3E50F124743BE
:103A2300A3A3A3E509F0902AE2E493C3950C500401
:103A3300E493F50C8E828F83A3A3A3A3A3E50CF0D9
:103A4300850A08850B09750A007808121016E50C1B
:103A5300C333FCE433FDEE2406FAEF3400125D4E6B
:103A6300121047EEFAEFFB7F0C020D3FC082C083BA
:103A7300123A8079FF121C7879010247C0902ACE4E
:103A8300E493FC740193FD2274F7120A4DEA70016A
:103A9300EB60498A828B83A3A3A3A3A3A3E58270CC
:103AA30002E58360377E0080010E8A828B83A3A3A5
:103AB300A3A3A3E0FFEEC39F5022EEC333F8E43386
:103AC300F9EA28F582EB39F583A3A3A3A3A3A3E023
:103AD3006C7003A3E06D70D17901800279008005D9
:103AE300740D1210477F01020D3F74F3120A4DEA61
:103AF3002405F8EB3400F9E8FEE9FFEA7001EB6016
:103B03006F8E828F83E06073EA240608EB3400F93A
:103B1300E0F50B750A00800B8E828F83E014F06052
:103B23005A050AE50AC3950B5046E50AC333F5085F
:103B3300E433F509EA2508F508EB3509F5097406B8
:103B43002508F508E43509F509850882F583E06C55
:103B53007003A3E06D60C1850882850983E0F508E1
:103B6300A3E0125D30E824020808E93400F980B1CB
:103B73008E828F83E06004790180027900800312D2
:103B830010477F05020D3F74F7120A4DEA7001EBEF
:103B93006037126AA7C0E0902AE2E493FED0E0C344
:103BA3009E502688828983E0C333FEE433FFEA2EE6
:103BB300F582EB3FF583A3A3A3A3A3A3ECF0A3EDAB
:103BC3001265B804F0790180027900023AE874F2D0
:103BD300120A4D89088C09123D0D7005126100808F
:103BE30003123CE674FE650A700474FF650B7006ED
:103BF3007A007B0080647800790080187401650C7A
:103C0300700F8C828D83E0650A7004A3E0650B60FE
:103C130049123919123C6050D712408F8A828B8324
:103C2300E0650870ECA3E0F50CEA2402FCEB340039
:103C3300FD8E828F83E0640160C2E50C70D38C82B9
:103C43008D83E0650A7004A3E0650B70C48A828BE0
:103C530083A3A3A3A3E0650970B702443C902AD2CF
:103C63001236C0C3E89AE99B2274F2120A4DEA2481
:103C730008F8EB1246D66401700512610080031246
:103C83003CE674FE650A700474FF650B60527E00A7
:103C93007F008047EEF8EFF9E875F00EA4F8AAF07C
:103CA30075F00EE9A42AF9E8242DFAE9341AFB8504
:103CB3000882850983E06401701B8A828B83A3E0F9
:103CC300640170148A828B83A3A3E0650A7004A342
:103CD300E0650B70031213A8123CEE123CFB40B4D8
:103CE30002443C1213F08A0A8B0B22123CF3FF228C
:103CF300EE24010EEF340022902AD2123D04022D4D
:103D030060E493F8740193F9C322EA2408F8EB12F0
:103D13005E4DE064012274F3120A4D890C8A0A8B0A
:103D23000B7508007509007E007F00801B12404060
:103D3300650C7011AC0AAD0BAA82AB831213AEE90A
:103D43006003124760123CEE123CFB40E0AA08AB52
:103D530009023B8574F1120A4D890D8A0A8B0B8C7B
:103D63000E750C007508007509008005050C1247D7
:103D730060902AD21237F9E50898E509995038E599
:103D83000875F00EA4F8AAF075F00EE509A42AF957
:103D9300E8242DFEE9123DC1650D70D2AC0AAD0BCE
:103DA300EEFAEFFB1213AEE960C4E50CC3950E40C7
:103DB300BBEEFAEFFB80047A007B00022CF0341A8E
:103DC300FF022E8774F6120A4D75080075090078F4
:103DD3000812101A123E0812401DE9A42AF975832D
:103DE3002A7582CEE49328FCA3E49339FD7A417BC0
:103DF30000121D747402121047E9FE60031213DEF1
:103E0300EEF9024778902ACE1236B3902AD2227462
:103E1300F6120A4D74FE1210BF123E3612101A75B6
:103E23000802750900780812101A7C007D007A4197
:103E330002476D851882851983E4F0A312408385B8
:103E4300820885830978082274F4120A4D74E712F4
:103E530010BF7E007F0085188285198385820885BF
:103E63008309780812101A7508028E09780812104F
:103E73001A7C007D007A41123F71121047E96003FA
:103E8300023F558E0A8E0B805874021212F0AC82D8
:103E9300AD83740D1212F012517C1213F6740A12D0
:103EA30012F0E0603974111212F0858208858309DB
:103EB300780812101A74121212F0E0FD7411121223
:103EC300F0E0FC74041212F0AA82AB83740D121298
:103ED300F0E0F91213A27402121047123CEE122CF6
:103EE30016851882851983123F665066740B121269
:103EF300F0858208858309780812101A902ACE1259
:103F03000E5C902ACE123F5EE8850AF0A4C8AAF0A0
:103F1300850BF0A42AFA850AF0124032123F71127F
:103F23001047E970B9740A1212F0E4F0740C12121B
:103F3300F0E07003023E8C740A1212F07401F07404
:103F43000D1212F01246A774021212F012475A020F
:103F53003EA8EEFAEFFB7419024801E493F87401EA
:103F630093F922124AF4C3E50A98E50B99227B00E0
:103F7300121D8074042274F5120A4D74F01210BFDE
:103F8300851882851983E4F0A3F0FE805A1240401D
:103F930064FF6050858208858309750A00780812DA
:103FA3001016123A8074051212F0AA82AB83125DC6
:103FB3004F12104774021212F08582088583097824
:103FC3000812101A902ACE120E5C74041212F01208
:103FD3004073902ACE12401D12403212407B1210C1
:103FE30047124063123CF3FF123CFB40A08518824A
:103FF300851983858208858309780812101A750844
:1040030002750900780812101A7C007D007A4112AB
:10401300407B12104774100242D6123F5EE88508B7
:10402300F0A4C8AAF08509F0A42AFA8508F022E9C9
:10403300A42AF9740228FCE439FD7A41221240458E
:10404300E022EEF8EFF9E875F00EA4F8AAF075F0A7
:104053000EE9A42AF9E8242DF582E9341AF583221E
:10406300851882851983E02401F0A3E03400F0224F
:10407300E0F508A3E0F509227B00121D7A740422FF
:1040830012408722F085188285198322E8FAE9FB1A
:10409300EA75F00EA4FAACF075F00EEBA42CFBEA73
:1040A300242DFAEB341AFB22EAF0A3EB12410B2284
:1040B300C082C08374F31210BF1242746402700E84
:1040C3001240F91212F012410312130C800CEAFC95
:1040D300EBFD74031212F01240E00247B51240E701
:1040E30012131222AA82AB8312253C8518828519EA
:1040F30083AA82AB83228A828B83124AF4740122BD
:10410300E8F0A3E912410B2212410F2212408780EB
:10411300E074F7120A4D74F31210BFECFEEDFF7456
:1041230004851882851983F0740B1212F0EAF0A348
:10413300EB12351AF508601D74038E828F83A3A3D7
:10414300A3A3A3A3A3A3F01212F0AC82AD83EEFA50
:10415300EFFB122464A908023AE3C082C08374F31C
:104163001210BF7404851882851983F0740B121220
:10417300F01240AB12131874010247B71251867440
:104183000D2274F6120A4D74F31210BF900336E039
:10419300706E7404851882851983F090037512403C
:1041A300FD1212F012475A121726EAFCEBFD7403B4
:1041B3001212F012340D1217328A088B09A808A9BB
:1041C3000974011212F0E0687003A3E069602B74B4
:1041D300FE68700374FF69602174011212F01247C4
:1041E3005A74031212F0AA82AB831217388518820D
:1041F300851983AA82AB8312131E7401900336F0D0
:10420300740D024775C082C08374F31210BF12424B
:1042130074FC74026C701E1240F91212F0E8F0A3E1
:10422300E9125A637048851882851983AA82AB8381
:1042330012131E803974036C7011EAFCEBFD7403D6
:104243001212F01240E0E9702580DB74016C7012E9
:104253008A828B831246A7740B1212F0E8F0A3E94B
:10426300800B740B1212F074FEF0A374FFF002477C
:10427300B57404851882851983F08A828B83A3A37E
:10428300A3A30265B274F5120A4D78007900880879
:1042930088097C007D008003123714902AD2E493AE
:1042A300FE740193FFC3EC9EED9F5021ECFEED12D3
:1042B30042DE60E4AE08AF0974012EF508E43FF571
:1042C30009EA6E7002EB6F70CFA882A983E8FAE95E
:1042D300FB80031210477F03020D3FFFEE75F00EC4
:1042E300A4FE85F00A75F00EEFA4250AFFEE242D37
:1042F300F582EF1242FA22341AF583E064FF22C0FA
:1043030082C08390034A743CF0A37416F090034C6C
:104313007436F0A37416F0900350746EF0A3741403
:10432300F00247C074F7120A4DEAFEEBFF900384D4
:10433300E0FA74086A601974046A60148E828F83C9
:10434300E06401704612469812529AE06406703B8C
:104353008E828F83A3A31246A774FE68700374FF33
:10436300696028900375E0687003A3E069700BEE41
:104373002415F582EF1263BB600AEEFA1216EAE91E
:10438300F508800AEEFA1216F080F47508C2EEFA08
:10439300EFFB121D14A908023AE874F2120A4D8ABF
:1043A300088B098A828B83A385820A85830B8A8281
:1043B3008B83E0F8850A82850B83E028FAE43400D6
:1043C300FB121D0E8A0C8B0DAE0CAF0DEE7001EFC0
:1043D300605C850882850983E0FC7D007900121CFE
:1043E300788E828F83A3A3125E6612172C8E828F20
:1043F30083A3A3A3A31244D1850882850983E0F88C
:10440300EE28F8EF3400F9124698124AD7C0E012AA
:104413005BF6D0E0F012173EEE240E125BF9E912C0
:1044230046B2E0C0E0EE2411125BF9D0E0F0EEFA00
:10443300EFFB8005740D1210477F06020D3F74F4E5
:10444300120A4D74EB1210BFEAFEEBFF900346E035
:104453007002A3E070677A077B00121D0E9003467B
:104463001244D1900346E07002A3E0604C900346EF
:104473001259A38F838E827407120F798E828F83D2
:10448300780812128E8518828519837808121270A3
:104493008E828F83A3A3A3A3E0C0E074051212F05E
:1044A300D0E01265AFC0E074041212F0D0E0F074F3
:1044B300071212F0124611800679108002790174F6
:1044C300150248011246A212518688828983EAF0B6
:1044D300A3EBF022C082C083900346E07002A3E006
:1044E300601090034612517C121D14900346E4F0B1
:1044F300A3F012165A12181C0247C074F3120A4D85
:1045030074EB1210BFECFEEDFF74221212F0780868
:1045130012128E74261212F0E0FC74271212F0E0CD
:10452300FD74281212F0E0F50C740F6C7005740F13
:104533006D6012901ADAE06402700579C102460CCC
:10454300ECC39D40F69003857808121270E990033E
:104553008BF0EC900389F0ED90038AF0E50C900367
:104563008CF074FF6A700374FF6B701F901AE7E09E
:1045730064FF7004A3E064FF7005121C8A800C9032
:104583001AE71246ABE8F0A3E98007900382EAF04A
:10459300A3EBF0EE7001EF6017EEFAEFFB1218DCFD
:1045A300E96401700BEEFCEFFD7A967B0312246441
:1045B300900375E4F0A3F0900378F0A3F0900395D3
:1045C300F0901ADAE06402700A740F900389F09095
:1045D300038AF07405900384F074041212F0E4F07B
:1045E300900385780812128E8518828519837808BE
:1045F30012127090038BE0C0E074051212F0D0E049
:10460300F074071212F01246117415023B82E41281
:1046130046162212410F12248E22E0F9121DBC22EB
:10462300C082C083900345E07003121F9012143EB2
:104633000247C0C082C083900345E07007E4901A2C
:1046430070F080317401901A70F0900345E064FFBC
:1046530060237C41E0C394415002E0FCECFAE0C3E8
:104663009AF0EC75F0E8A4CCAAF075F003A42AFD47
:104673007A801246847A707B1A794112247C02472D
:10468300C07B009003D0E0F9121DB022F582EF1237
:1046930046A2740122EE12469D22240BF582EF34CA
:1046A30000F58322124AF422124AF4900382221262
:1046B30046B622F0850882850983A3A322F8A3E0E6
:1046C300F922C082C083EB90038CF0121648024794
:1046D300C0F8EF1248ED8882F583E022124747A322
:1046E300E02274F7120A4D74F81210BFEAFEEBFFD2
:1046F3007900900384E064087041851882851983EA
:1047030074FD125E6812172674021212F01244D15D
:1047130074051212F0E4124743E0C0E0740412126D
:10472300F0D0E012474EC0E074061212F0D0E0F071
:1047330074071212F0124AE81217687408023AE575
:1047430012474722F08E828F83A322F0022E8785A1
:104753000882850983A3A3E8F0A3E9F022E50824EE
:1047630001F508E5093400F5092212407B121047D0
:1047730074021210477F02020D3FC082C083900370
:104783005674F8F0A37414F09003FC74C2F0A3748D
:1047930017F090035A7428F0A37415F090035C7417
:1047A300F8F0A37414F090035E742EF0A37415F064
:1047B300800B740B1212F012417F121047D083D07A
:1047C30082020CC574F4120A4D74F91210BF8A08E0
:1047D3008B098C0A8D0B8518828519837808121230
:1047E3007074041212F0E9F074051212F0E4F0741C
:1047F300061212F0124AE8121426740780001210EF
:10480300477F04020D3F74F0120A4D8A828B831294
:104813005F58EE7001EF70030248EAEA2402F8EBF6
:104823001248ED900312E07002A3E06013888289BE
:1048330083E0F9EEFAEFFB90031212529A1226ACC0
:10484300EE2406F8EF3400F9880A890BEE240908F0
:104853000808EF3400F9880C890D8882F583E06439
:1048630002704B850A82850B83E0540260528508EF
:1048730082850983E064E96047EE240A08EF126A3F
:10488300AC700A901ADCE00488828983F0E014F0AB
:104893007404850C82850D83F0901ADD125C10E898
:1048A300F0A3E9126AC17001EB7003126594850CE1
:1048B30082850D83E0FA74026A600574066A7027C4
:1048C300850A82850B83E0A2E0501C850882850956
:1048D30083E0F9EEFAEFFB122596850A82850B83B6
:1048E300E054FEF0A3E0F0022F3A3400F98808897F
:1048F300092274EC120A4D74DD1210BFEAFEEBFFBD
:104903008C128D1374371212F0780C12128E7510EC
:104913000074051212F0AC82AD83122500EE240B55
:10492300F508EF12476874051212F0E0A2E550197A
:10493300751001AC82AD8385088285098312517C91
:104943001225A2E96003024A9074051212F0E0A254
:10495300E6502274061212F0E05403701874051224
:1049630012F0E0540CFA740C6A600A74086A600569
:10497300751101800375110074051212F0E05403E0
:10498300FA74026A7013AC82AD8385088285098349
:1049930012517C122632024A90EE2406F50AEF12D7
:1049A3002C1E74016A7037E5116003124AC6740540
:1049B3001212F0A882A98374031212F0E8F0A3E99B
:1049C300124AED851882851983124AD7C0E0740212
:1049D3001212F0D0E0124AE9122680024A90EA60ED
:1049E30003024A9090036CE06401700C850A82858F
:1049F3000B83E07003024A9074221212F0740212C5
:104A03004AED741A1212F012475AE5116008740540
:104A13001212F0124AC674051212F0E0540C640428
:104A23007073EE240FF582EF1263BBC0E0741712AC
:104A330012F0D0E0F0900314E07002A3E0604E1295
:104A4300172C8A088B09A808A909741A1212F0E016
:104A5300687003A3E0697035780C121012E510F545
:104A630008780812101E781212101AA911740C1269
:104A730012F0AC82AD8374211212F0AA82AB839040
:104A8300031412529A1226AC74071210477423129D
:104A93001047023A6A780C121012781212101A9008
:104AA3000382120E2FA91074221212F0AC82AD836E
:104AB300740D1212F0AA82AB8312258A74081210A5
:104AC3004780CAAC82AD83850882850983125186EB
:104AD3001224FA22E8F0A3E9124ADF22F0850A82BF
:104AE300850B83E022E412410B22123010124AF4A8
:104AF30022E00246C0C082C083121E880247C0C0A3
:104B030082C083121E8E0247C0C082C083121E94CD
:104B13000247C0C082C083121E9A0247C074F712B4
:104B23000A4D74091212F0E0F508780812101E12EB
:104B33001EA67401023AE5C082C083121EB2024768
:104B4300C0C082C083121EB80247C0C082C0831295
:104B53001EBE0247C074F7120A4DEAFEEBFF740152
:104B6300697010790012156A7C1E7900EEFAEFFB6A
:104B73001214E6023AE874F4120A4D74F91210BFE3
:104B83008A088B098C0A8D0B74131212F012517C54
:104B93009011A6E07002A3E06027E98518828519C9
:104BA30083F074011212F07808121270EAF8EBF92C
:104BB30074051212F01241039011A612529A122692
:104BC300AC0247FDC082C083121EEE0247C074F7D9
:104BD300120A4D901A73E0F97F00800B124E0E54A7
:104BE3000D64017001190F124DCB5003E970ED02F2
:104BF3003AE874F7120A4D901A74E0F97F00800BBB
:104C0300124E0E548D64817001190F124DCB500357
:104C1300E970ED023AE874F3120A4D890CE975F074
:104C230006A4F8A9F0740C28F508E439F509EA2577
:104C330008FAE43509FB121D0E8A0A8B0BAE0AAF84
:104C43000BEE7001EF6025AC08AD097900121C78FA
:104C5300124698E50CF0EE2508F8EF3509F98E8237
:104C63008F83A3A3A3A3A3A3A3124758EEFAEFFB37
:104C7300023B8574F6120A4DEAFEEBFF1214C29052
:104C83001A72E0FAE9C39A400990035212517C1256
:104C930014C8EE2402F8EF1248ED900354E0888222
:104CA3008983F0900354E004124CBB1214CE8508A0
:104CB30082850983E0023E04F0EEFAEFFB22C08214
:104CC300C083790090035280010912517C8A828B40
:104CD30083E5827002E58370F00247C074F7120A1D
:104CE3004DEAFEEBFFEE7001EF605E900352E07061
:104CF30002A3E0605490035212552D7A007B00808A
:104D03000FAA82AB8312552DE5827002E5836039C9
:104D1300EE65827003EF658370E78E828F831246A0
:104D2300A79003521259A3EE6C7002EF6D700590B9
:104D3300035280048A828B8312475AEEFAEFFB12E6
:104D43002650EEFAEFFB121D14023AE8C082C0832C
:104D5300900352E0F8A3E08003ECF8EDF9E870016A
:104D6300E9600912599FEC7001ED70ED8A828B8323
:104D7300E4F0A3F0E87001E9600688828983800388
:104D83009003521244D10247C074F7120A4D9003A4
:104D93005280048A828B83125E5C7001EB60227FF7
:104DA3000080010F124DCB50EAEF75F006A4FCAD65
:104DB300F0EA2CFCEB3DFD7410124E226970E48086
:104DC300047A007B00023AE8124E2FFCEFC39C22C8
:104DD30074F7120A4D7800800108124E2BFDE8C3C8
:104DE3009D5025E875F006A4FEAFF0EA2EFEEB3FDA
:104DF300FFEE2410F582EF1263BB6970DCEE241121
:104E0300F582EF1263BB4CF0023AE8EF75F006A4AB
:104E1300FCADF0EA2CFCEB3DFD7411124E22222C6A
:104E2300F582E43DF583E022124E2F22EA240BF5AE
:104E330082EB3400F583E02274F6120A4D1215E278
:104E43007A008010EA125DA9124ECC125DB4F01202
:104E53005085F00A902AD81268F440E87A00801E40
:104E63008A08750900740378081211EB1263AA8883
:104E7300828983124ECCA3A3A3A3A3A3F00A902AEF
:104E8300E51268F440DA7A00801A8A08750900741A
:104E93000378081211EBE50824B8F582E509341903
:104EA300125E640A1268F140E1902AD4E4939003FD
:104EB30060F0124EBB0247787CE87D037A107B00DA
:104EC3009003D0E0F9121DB622124ED022A374FE35
:104ED300F0A374FFF0E488828983A32274F0120A9A
:104EE3004D74F51210BF8A088B09890A8C0BE9A24D
:104EF300E050147508FC7509FFA2E15005D2E402E5
:104F03004FA9D2E3024FA91215C48A0C8B0DA80C2A
:104F1300A90D900375E0687003A3E069700579003B
:104F2300025080AC0A7902AA08AB091215BEE960E7
:104F3300EDE50AF50C780C12101E79027CFE7DFF5C
:104F4300AA08AB0912569B121047E9600302507E70
:104F5300E50AC2E5F50A9003C2E0704CE50AA2E651
:104F6300404674031212F0AC82AD83AA08AB091257
:104F73001C72E9702D12518CF8EBF9EA7001EB60A9
:104F830027E82402FEE93400FF0A0AFB122536E96A
:104F93006016EEFCEFFD74031212F0AA82AB8312CB
:104FA3002464E50AD2E5F50A900355E0F50C900375
:104FB30075E0F50EA3E0F50F780E12101A7D017C53
:104FC30000900355E0F9AA0EAB0F12157674021286
:104FD3001047E9FA900355E004F0EA600302507EBB
:104FE300E50AA2E550047A0E80027A0674011212D1
:104FF300F01261138A0E8B0FAE0EAF0FEE7001EF3E
:1050030060751250931246991240FD88828983F08D
:105013007478550A125085A3A3E50C1263BFE50803
:10502300F0E50988828983A3A3A3A3F0E488828996
:1050330083A3A3A3A3A3F0E50AA2E5501474031268
:1050430012F0AC82AD83E82406FAE93400FB1224A3
:10505300648E828F83A3A374FD125E68E50B600EDA
:10506300C3941E5009EE2413125BF9E50BF0EEFA1C
:10507300EFFB12141A80067910800279C7740B02B1
:105083002F37A312508A22F08001F9888289832264
:10509300EE241712469F7401F0121726EE241A12FB
:1050A300469FEAF0A3EBF0EE22C082C08390124346
:1050B300E06401901ADB7006E0FC79018004E0FCF7
:1050C30079037A007B001214E60247C074F4120AD3
:1050D3004D8A088B09E9FE12179EE960067AFF7B69
:1050E300FF8078901ADAE0640270637900125161EC
:1050F300EA7001EB6042126AA7FC74016C702290A3
:105103000374E08A828B83A3A3A3A3F08A828B8395
:10511300A3A312517C74FE6A700374FF6B6010804A
:105123003A74036C601A74046C70047AFE80B0885D
:10513300828983E0640270089003C1E06402700E08
:1051430012518C7001EB6006AA08AB09800DAA0806
:10515300AB0990035612529A1226AC024804AA08CD
:10516300AB09125169221215C4EEF91215B822EADD
:10517300240BF582EB3400F58312518622850E82CF
:10518300850F83E0FAA3E0FB2212519412185EEA22
:1051930022900382E0FCA3E0FDAA08AB092274F786
:1051A300120A4DEAFEEBFF121348E9700AEEFAEF1A
:1051B300FB121354E96006EEFAEFFB80047AFE7BE0
:1051C300FF023AE874F2120A4D8A088B098C0A8DA1
:1051D3000BE9FE7F0012179EE979006003025290EB
:1051E300AA08AB09126C327002E5836017A3A3A36C
:1051F300A3A3E0FA74026A704F9003C1E0640270E3
:105203000302528EAA08AB0990035C12529A12262B
:10521300AC12135A8A0C8B0DA80CA90DE87001E986
:105223006069E82405F582E91263BBA2E0505C756E
:105233000C01A2E1501C7901AC08AD09AA0AAB0B21
:10524300121516E9700F804374036A703E750C02E1
:105253008003D2E1F0900375E0650A7004A3E06572
:105263000B700E7C1EEEF9AA08AB091214E60F8030
:105273001AA90CAC08AD09AA0AAB0B121516E970F2
:105283000A0FEEF9AA08AB0912156AEFF902443CBA
:10529300EEFAEFFB90035812529E22E0F8A3E0F5DA
:1052A3008388822274E8120A4D74F01210BF8A14A4
:1052B3008B158C088D0974281212F0E0F510A3E009
:1052C300F511900402E07002A3E06012126C3870D2
:1052D30002E5836009A3E07005790002550CE5142B
:1052E300241DF516E5153400F51785168212552B86
:1052F300A3E0F50A8882898312567BFA8882898320
:10530300A3A3A3A3E0F9EAFEE9FFAA08AB091215D8
:1053130070E9FA125533E02AF50B530A78E51424A1
:105323000BF50EE5153400F50F780812101A7D0001
:1053330012551E121047E9FA74036A609CEA704022
:105343007418550A700302542AE50AD2E0F50AA23A
:10535300E45004D2E1F50AE50AF50D780D12101EAA
:10536300125511121047E970178510828511837445
:10537300FFF0A3F0850E82850F8312517C121EACC1
:10538300851082851183E064FF7004A3E064FF60ED
:10539300399003C1E0640270030252DC850E8285FA
:1053A3000F83E0FAA3E01252961226ACEA65087066
:1053B30003EB650960030252DC1252931226AC859B
:1053C3001082851183EAF0A3EBF0780812101A7D9E
:1053D3000112551E121047A90AEEFAEFFB1215C46B
:1053E3008A088B09A808A909900375E0687003A3CC
:1053F300E0696003025503EEFAEFFB1234787002A2
:10540300E5836064A3A3A3A3E0FA74016A6005744F
:10541300026A7054851882851983AC82AD83EEFAD3
:10542300EFFB121C72805590036EE0600FE50AF5E6
:105433000D780D12101E125511121047E50AF50DC5
:10544300780D12101E79027CFE7DFFEEFAEFFB123F
:10545300569B121047E9600302538385108285111E
:105463008374FFF0A30253CC121726EAFCEBFD85ED
:105473001882851983AA82AB8312246485148285DA
:105483001583A3A3A3A3A3A3A3A3E06401701AE5B5
:10549300142415F582E515125BFC1259A374081246
:1054A30012F0AA82AB8312246485168285178312B5
:1054B300529AA3E04430F508780812101E740112C2
:1054C30012F0858208858309780812101A740B126A
:1054D30012F0858208858309780812101AE50CF505
:1054E30008780812101E7900EEFCEFFD850E828508
:1054F3000F8312517C12151074061210470252DCEE
:10550300125533E50BF012173E74100268D279017D
:10551300AC08AD0912518012569B22AC0BA90C1298
:105523005180121576740222F583124AF402508ECA
:1055330085168285178312529E025C1574EE120A39
:105543004D74F01210BF8A108B11EA241DF50EEB77
:105553003400F50F850E8212552B12567BFC888280
:105563008983A3A3A3A3E0FBECFEEBFF88828983DB
:10557300A3A3A3A3A3E0FC88828983A3A3A3A3A3D8
:10558300A3E0FAE4CAFBECF508EBF509888289830A
:10559300A3A3A3A3A3A3A3E0F50A88828983A3E01B
:1055A3005478F50BA2E45016E82408FCE93400FD16
:1055B30074081212F0AA82AB831224647A08E50BF2
:1055C300A2E55024EAF8850E82850F83E028F8A32C
:1055D300E03400F9740828FCE439FD851882851944
:1055E30083AA82AB83122464AC0AA90CEEFAEFFB04
:1055F30012157CE9FA74036A6079900375E06E70A2
:1056030003A3E06F605EEA7054E50BF50D780D12AD
:10561300101E125687121047E97058780B12101E8D
:1056230074011212F085820E85830F780E12101A00
:10563300740B1212F085820E85830F780E12101AE6
:10564300E50CF50B780B12101EA90AAC08AD09EE98
:10565300FAEFFB1215107406121047801674046AD1
:10566300701180B7E50BF50A780A12101E125687DF
:1056730012104774100259F8A3A3E0F50C8882892D
:10568300830265B37901E510240BF582E511124617
:10569300A212519712569B2212153474012274E8F8
:1056A300120A4D74F51210BFEAFEEBFF8C088D0948
:1056B300891274231212F0E0F50F74241212F0E031
:1056C300F516A3E0F51774281212F0E0F50EA90FF2
:1056D3001215828A108B1174011212F07408F0E50E
:1056E3000EA2E450037410F0E50EA2E55004E0248A
:1056F30008F0851882851983AA82AB831217868ADC
:105703000C8B0DEA7001EB7003025852EA2417F573
:1057130082EB124692F0121726E50C241AF582E565
:105723000D125BFC1244D1E50C2418F514E50D347D
:1057330000F515E50C2416F50AE50D122C1E74036D
:105743001212F0AC82AD83AA10AB11121C72E96085
:105753001E7401850A82850B83F074031212F0A86C
:1057630082A983851482851583E8F0A3E98025E562
:105773000EA2E45020E5106E7003E5116F701674ED
:1057830001850A82850B83F0851482851583E516CE
:10579300F0A3E517F0E50C125859E50D125BFC1266
:1057A30061047402850A82850B83F0A3E50E125807
:1057B3005EE50FF0EE850A82850B83A3A3A3F0EFCA
:1057C300850A82850B83A3A3A3A312585EA3A3A375
:1057D300E508F0E509850A82850B83A3A3A3A3A3A8
:1057E300A3F0AA10AB11121570E92512850A828560
:1057F3000B83A3A3A3A3A3A3A3F0750800E50EA2A1
:10580300E45014AC16AD17E50A2408FAE50B34008E
:10581300FB122464750808E50EA2E5501C742612D9
:1058230012F01259A3E50A2508F8E50B3400F974C0
:105833000828FAE439FB122464850C82850D83A3BE
:10584300A3E510F0A3E511F0AA0CAB0D12141A7422
:105853000B0268D2E508240BF58222F0850A8285C3
:105863000B83A3A32274F2120A4D8A088B09ECFE60
:10587300EDFF890A79001215C49003751230A36AEB
:105883007002E96B70047901802A750B01E86508E1
:105893007003E965096012A90AEEFCEFFDAA08ABE3
:1058A300091217DAE9F50B80097901EEFAEFFB1219
:1058B3001498A90B02443C74F5120A4D7E007F181C
:1058C3007A101259A77001EB7003124EBB9003605C
:1058D300E014F0700C902AD4E493900360F0121556
:1058E300D0750A008052EE2404F582EF1263BB6088
:1058F3003D14F07039EE24051246D4640370157913
:10590300028E828F831259A38E828F83A3A3125197
:105913007C121516850882850983E06401600F8E69
:10592300828F83125E66E4850882850983F0050A07
:10593300EE2407FEEF3400FF902AD712599740A6B2
:10594300750A00802C850A0875090074037808120B
:1059530011EB1263A52407F582E91263BB14F070FF
:105963000E88828983A3125E66E488828983F005A8
:105973000A902AE512599740CC750A00800BE50A74
:10598300125D3E600214F0050A902AD8125997401E
:10599300ED0242D9E493FAE50AC39A228882898305
:1059A300125C2B227B009003D0E0F9121DC2EA2285
:1059B30074F6120A4DE97024790090035A12529A30
:1059C3001226AC8A088B09AE08AF0974FE6E700309
:1059D30074FF6F701A902ADEE493601379019003C9
:1059E3005A12529A1226AC8A088B09AE08AF0912D2
:1059F300174A02324F1210477F0A020D3F74F61204
:105A03000A4D74F31210BF121C8A8A088B09AE0860
:105A1300AF09900375E06E7003A3E06F60E912179E
:105A230032EA6E7002EB6F60DEEEFAEFFB12179E46
:105A3300E970D4EE7001EF60CEE485188285198396
:105A4300F074011212F0EEF0A3EF125A6370B874FF
:105A5300FE6E700374FF6F60AEEEFAEFFB0242035B
:105A630012410B12130CE922C082C08312174A029F
:105A730047C074F2120A4DEAFEEBFF8C088D0989C8
:105A83000A740E1212F0E0F50B74FC6E700374FFCF
:105A93006F7005790002443C79001215C48A0C8B9F
:105AA3000DAE0CAF0D900375E06E7003A3E06F7045
:105AB30006E50BA2E650DCA90B125BDC7001E97072
:105AC3001279007AFE7BFF125BDC7001E9700479C6
:105AD3000280C288828983EEF0A3EFF074FE65082A
:105AE300700474FF6509600988828983A3A3125D2A
:105AF30036E82406F582E9125BFCE50BF0A2E050E0
:105B030003D2E2F0E82404FAE93400FBE82405F8C0
:105B1300E93400F97401650A702674018882898367
